{
  "contractName": "RedEthvelope",
  "abi": [
    {
      "constant": false,
      "inputs": [
        {
          "name": "_to",
          "type": "address"
        }
      ],
      "name": "createAndSendEthvelope",
      "outputs": [],
      "payable": true,
      "stateMutability": "payable",
      "type": "function"
    },
    {
      "constant": false,
      "inputs": [
        {
          "name": "_to",
          "type": "address"
        },
        {
          "name": "_tokenId",
          "type": "uint256"
        }
      ],
      "name": "approve",
      "outputs": [],
      "payable": false,
      "stateMutability": "nonpayable",
      "type": "function"
    },
    {
      "constant": true,
      "inputs": [],
      "name": "totalSupply",
      "outputs": [
        {
          "name": "",
          "type": "uint256"
        }
      ],
      "payable": false,
      "stateMutability": "view",
      "type": "function"
    },
    {
      "constant": true,
      "inputs": [
        {
          "name": "_tokenId",
          "type": "uint256"
        }
      ],
      "name": "approvedFor",
      "outputs": [
        {
          "name": "",
          "type": "address"
        }
      ],
      "payable": false,
      "stateMutability": "view",
      "type": "function"
    },
    {
      "constant": true,
      "inputs": [],
      "name": "metadataHostUrl",
      "outputs": [
        {
          "name": "",
          "type": "string"
        }
      ],
      "payable": false,
      "stateMutability": "view",
      "type": "function"
    },
    {
      "constant": false,
      "inputs": [
        {
          "name": "_tokenId",
          "type": "uint256"
        },
        {
          "name": "_amountInWei",
          "type": "uint256"
        }
      ],
      "name": "withdraw",
      "outputs": [],
      "payable": false,
      "stateMutability": "nonpayable",
      "type": "function"
    },
    {
      "constant": true,
      "inputs": [],
      "name": "costInWei",
      "outputs": [
        {
          "name": "",
          "type": "uint256"
        }
      ],
      "payable": false,
      "stateMutability": "view",
      "type": "function"
    },
    {
      "constant": true,
      "inputs": [
        {
          "name": "",
          "type": "uint256"
        }
      ],
      "name": "redEthvelopes",
      "outputs": [
        {
          "name": "",
          "type": "uint8"
        }
      ],
      "payable": false,
      "stateMutability": "view",
      "type": "function"
    },
    {
      "constant": true,
      "inputs": [
        {
          "name": "_owner",
          "type": "address"
        }
      ],
      "name": "tokensOf",
      "outputs": [
        {
          "name": "",
          "type": "uint256[]"
        }
      ],
      "payable": false,
      "stateMutability": "view",
      "type": "function"
    },
    {
      "constant": false,
      "inputs": [
        {
          "name": "_wei",
          "type": "uint256"
        }
      ],
      "name": "withdrawAsOwner",
      "outputs": [],
      "payable": false,
      "stateMutability": "nonpayable",
      "type": "function"
    },
    {
      "constant": true,
      "inputs": [
        {
          "name": "",
          "type": "uint256"
        }
      ],
      "name": "tokenIdToWei",
      "outputs": [
        {
          "name": "",
          "type": "uint256"
        }
      ],
      "payable": false,
      "stateMutability": "view",
      "type": "function"
    },
    {
      "constant": true,
      "inputs": [
        {
          "name": "_tokenId",
          "type": "uint256"
        }
      ],
      "name": "ownerOf",
      "outputs": [
        {
          "name": "",
          "type": "address"
        }
      ],
      "payable": false,
      "stateMutability": "view",
      "type": "function"
    },
    {
      "constant": true,
      "inputs": [
        {
          "name": "_tokenId",
          "type": "uint256"
        }
      ],
      "name": "tokenMetadata",
      "outputs": [
        {
          "name": "infoUrl",
          "type": "string"
        }
      ],
      "payable": false,
      "stateMutability": "view",
      "type": "function"
    },
    {
      "constant": true,
      "inputs": [
        {
          "name": "_owner",
          "type": "address"
        }
      ],
      "name": "balanceOf",
      "outputs": [
        {
          "name": "",
          "type": "uint256"
        }
      ],
      "payable": false,
      "stateMutability": "view",
      "type": "function"
    },
    {
      "constant": true,
      "inputs": [],
      "name": "owner",
      "outputs": [
        {
          "name": "",
          "type": "address"
        }
      ],
      "payable": false,
      "stateMutability": "view",
      "type": "function"
    },
    {
      "constant": false,
      "inputs": [
        {
          "name": "_to",
          "type": "address"
        },
        {
          "name": "_tokenId",
          "type": "uint256"
        }
      ],
      "name": "transfer",
      "outputs": [],
      "payable": false,
      "stateMutability": "nonpayable",
      "type": "function"
    },
    {
      "constant": false,
      "inputs": [
        {
          "name": "_tokenId",
          "type": "uint256"
        }
      ],
      "name": "takeOwnership",
      "outputs": [],
      "payable": false,
      "stateMutability": "nonpayable",
      "type": "function"
    },
    {
      "constant": false,
      "inputs": [
        {
          "name": "_tokenId",
          "type": "uint256"
        }
      ],
      "name": "deposit",
      "outputs": [],
      "payable": true,
      "stateMutability": "payable",
      "type": "function"
    },
    {
      "constant": true,
      "inputs": [],
      "name": "ownerBalance",
      "outputs": [
        {
          "name": "",
          "type": "uint256"
        }
      ],
      "payable": false,
      "stateMutability": "view",
      "type": "function"
    },
    {
      "constant": false,
      "inputs": [
        {
          "name": "_wei",
          "type": "uint256"
        }
      ],
      "name": "changeCostInWei",
      "outputs": [],
      "payable": false,
      "stateMutability": "nonpayable",
      "type": "function"
    },
    {
      "constant": false,
      "inputs": [
        {
          "name": "newOwner",
          "type": "address"
        }
      ],
      "name": "transferOwnership",
      "outputs": [],
      "payable": false,
      "stateMutability": "nonpayable",
      "type": "function"
    },
    {
      "constant": false,
      "inputs": [
        {
          "name": "_url",
          "type": "string"
        }
      ],
      "name": "changeMetadataUrl",
      "outputs": [],
      "payable": false,
      "stateMutability": "nonpayable",
      "type": "function"
    },
    {
      "inputs": [
        {
          "name": "_url",
          "type": "string"
        },
        {
          "name": "_costInWei",
          "type": "uint256"
        }
      ],
      "payable": false,
      "stateMutability": "nonpayable",
      "type": "constructor"
    },
    {
      "anonymous": false,
      "inputs": [
        {
          "indexed": false,
          "name": "_to",
          "type": "address"
        }
      ],
      "name": "EthvelopeCreatedAndSent",
      "type": "event"
    },
    {
      "anonymous": false,
      "inputs": [
        {
          "indexed": true,
          "name": "previousOwner",
          "type": "address"
        },
        {
          "indexed": true,
          "name": "newOwner",
          "type": "address"
        }
      ],
      "name": "OwnershipTransferred",
      "type": "event"
    },
    {
      "anonymous": false,
      "inputs": [
        {
          "indexed": true,
          "name": "_from",
          "type": "address"
        },
        {
          "indexed": true,
          "name": "_to",
          "type": "address"
        },
        {
          "indexed": false,
          "name": "_tokenId",
          "type": "uint256"
        }
      ],
      "name": "Transfer",
      "type": "event"
    },
    {
      "anonymous": false,
      "inputs": [
        {
          "indexed": true,
          "name": "_owner",
          "type": "address"
        },
        {
          "indexed": true,
          "name": "_approved",
          "type": "address"
        },
        {
          "indexed": false,
          "name": "_tokenId",
          "type": "uint256"
        }
      ],
      "name": "Approval",
      "type": "event"
    }
  ],
  "bytecode": "0x60606040526000600655600060075534156200001a57600080fd5b60405162002148380380620021488339810160405280805182019190602001805190602001909190505033600560006101000a81548173ffffffffffffffffffffffffffffffffffffffff021916908373ffffffffffffffffffffffffffffffffffffffff160217905550620000a482620000cb6401000000000262001241176401000000009004565b620000c381620001446401000000000262001083176401000000009004565b50506200025a565b600560009054906101000a900473ffffffffffffffffffffffffffffffffffffffff1673ffffffffffffffffffffffffffffffffffffffff163373ffffffffffffffffffffffffffffffffffffffff161415156200012857600080fd5b806009908051906020019062000140929190620001ab565b5050565b600560009054906101000a900473ffffffffffffffffffffffffffffffffffffffff1673ffffffffffffffffffffffffffffffffffffffff163373ffffffffffffffffffffffffffffffffffffffff16141515620001a157600080fd5b8060068190555050565b828054600181600116156101000203166002900490600052602060002090601f016020900481019282601f10620001ee57805160ff19168380011785556200021f565b828001600101855582156200021f579182015b828111156200021e57825182559160200191906001019062000201565b5b5090506200022e919062000232565b5090565b6200025791905b808211156200025357600081600090555060010162000239565b5090565b90565b611ede806200026a6000396000f300606060405260043610610128576000357c0100000000000000000000000000000000000000000000000000000000900463ffffffff1680630950bdbb1461012d578063095ea7b31461015b57806318160ddd1461019d5780632a6dd48f146101c6578063381708c914610229578063441a3e70146102b7578063468f4fe3146102e35780634fcbdc8c1461030c5780635a3f26721461034957806361c1f797146103d75780636297ced0146103fa5780636352211e146104315780636914db601461049457806370a08231146105305780638da5cb5b1461057d578063a9059cbb146105d2578063b2e6ceeb14610614578063b6b55f2514610637578063bedcf0031461064f578063db66441f14610678578063f2fde38b1461069b578063fefa5edd146106d4575b600080fd5b610159600480803573ffffffffffffffffffffffffffffffffffffffff16906020019091905050610731565b005b341561016657600080fd5b61019b600480803573ffffffffffffffffffffffffffffffffffffffff1690602001909190803590602001909190505061081a565b005b34156101a857600080fd5b6101b06109ad565b6040518082815260200191505060405180910390f35b34156101d157600080fd5b6101e760048080359060200190919050506109b6565b604051808273ffffffffffffffffffffffffffffffffffffffff1673ffffffffffffffffffffffffffffffffffffffff16815260200191505060405180910390f35b341561023457600080fd5b61023c6109f3565b6040518080602001828103825283818151815260200191508051906020019080838360005b8381101561027c578082015181840152602081019050610261565b50505050905090810190601f1680156102a95780820380516001836020036101000a031916815260200191505b509250505060405180910390f35b34156102c257600080fd5b6102e16004808035906020019091908035906020019091905050610a91565b005b34156102ee57600080fd5b6102f6610b5b565b6040518082815260200191505060405180910390f35b341561031757600080fd5b61032d6004808035906020019091905050610b61565b604051808260ff1660ff16815260200191505060405180910390f35b341561035457600080fd5b610380600480803573ffffffffffffffffffffffffffffffffffffffff16906020019091905050610b94565b6040518080602001828103825283818151815260200191508051906020019060200280838360005b838110156103c35780820151818401526020810190506103a8565b505050509050019250505060405180910390f35b34156103e257600080fd5b6103f86004808035906020019091905050610c31565b005b341561040557600080fd5b61041b6004808035906020019091905050610cf1565b6040518082815260200191505060405180910390f35b341561043c57600080fd5b6104526004808035906020019091905050610d09565b604051808273ffffffffffffffffffffffffffffffffffffffff1673ffffffffffffffffffffffffffffffffffffffff16815260200191505060405180910390f35b341561049f57600080fd5b6104b56004808035906020019091905050610d87565b6040518080602001828103825283818151815260200191508051906020019080838360005b838110156104f55780820151818401526020810190506104da565b50505050905090810190601f1680156105225780820380516001836020036101000a031916815260200191505b509250505060405180910390f35b341561053b57600080fd5b610567600480803573ffffffffffffffffffffffffffffffffffffffff16906020019091905050610f15565b6040518082815260200191505060405180910390f35b341561058857600080fd5b610590610f61565b604051808273ffffffffffffffffffffffffffffffffffffffff1673ffffffffffffffffffffffffffffffffffffffff16815260200191505060405180910390f35b34156105dd57600080fd5b610612600480803573ffffffffffffffffffffffffffffffffffffffff16906020019091908035906020019091905050610f87565b005b341561061f57600080fd5b6106356004808035906020019091905050610fda565b005b61064d6004808035906020019091905050611005565b005b341561065a57600080fd5b61066261107d565b6040518082815260200191505060405180910390f35b341561068357600080fd5b6106996004808035906020019091905050611083565b005b34156106a657600080fd5b6106d2600480803573ffffffffffffffffffffffffffffffffffffffff169060200190919050506110e9565b005b34156106df57600080fd5b61072f600480803590602001908201803590602001908080601f01602080910402602001604051908101604052809392919081815260200183838082843782019150505050505091905050611241565b005b6000600654341015151561074457600080fd5b8173ffffffffffffffffffffffffffffffffffffffff163373ffffffffffffffffffffffffffffffffffffffff161415151561077f57600080fd5b6006546007600082825401925050819055506107a361079d346112b7565b836112fe565b90506107b381600654340361135d565b7f807778b2bc75017fe64f286cc4194ad6b3cb1a107dd510d8e154fef49a85efc482604051808273ffffffffffffffffffffffffffffffffffffffff1673ffffffffffffffffffffffffffffffffffffffff16815260200191505060405180910390a15050565b6000813373ffffffffffffffffffffffffffffffffffffffff1661083d82610d09565b73ffffffffffffffffffffffffffffffffffffffff1614151561085f57600080fd5b61086883610d09565b91508173ffffffffffffffffffffffffffffffffffffffff168473ffffffffffffffffffffffffffffffffffffffff16141515156108a557600080fd5b60006108b0846109b6565b73ffffffffffffffffffffffffffffffffffffffff161415806108ea575060008473ffffffffffffffffffffffffffffffffffffffff1614155b156109a757836002600085815260200190815260200160002060006101000a81548173ffffffffffffffffffffffffffffffffffffffff021916908373ffffffffffffffffffffffffffffffffffffffff1602179055508373ffffffffffffffffffffffffffffffffffffffff168273ffffffffffffffffffffffffffffffffffffffff167f8c5be1e5ebec7d5bd14f71427d1e84f3dd0314c0f7b2291e5b200ac8c7c3b925856040518082815260200191505060405180910390a35b50505050565b60008054905090565b60006002600083815260200190815260200160002060009054906101000a900473ffffffffffffffffffffffffffffffffffffffff169050919050565b60098054600181600116156101000203166002900480601f016020809104026020016040519081016040528092919081815260200182805460018160011615610100020316600290048015610a895780601f10610a5e57610100808354040283529160200191610a89565b820191906000526020600020905b815481529060010190602001808311610a6c57829003601f168201915b505050505081565b813373ffffffffffffffffffffffffffffffffffffffff16610ab282610d09565b73ffffffffffffffffffffffffffffffffffffffff16141515610ad457600080fd5b600860008481526020019081526020016000205482101515610af557600080fd5b8160086000858152602001908152602001600020600082825403925050819055503373ffffffffffffffffffffffffffffffffffffffff166108fc839081150290604051600060405180830381858888f193505050501515610b5657600080fd5b505050565b60065481565b600a81815481101515610b7057fe5b9060005260206000209060209182820401919006915054906101000a900460ff1681565b610b9c611d39565b600360008373ffffffffffffffffffffffffffffffffffffffff1673ffffffffffffffffffffffffffffffffffffffff168152602001908152602001600020805480602002602001604051908101604052809291908181526020018280548015610c2557602002820191906000526020600020905b815481526020019060010190808311610c11575b50505050509050919050565b600560009054906101000a900473ffffffffffffffffffffffffffffffffffffffff1673ffffffffffffffffffffffffffffffffffffffff163373ffffffffffffffffffffffffffffffffffffffff16141515610c8d57600080fd5b6007548111151515610c9e57600080fd5b806007600082825403925050819055503373ffffffffffffffffffffffffffffffffffffffff166108fc829081150290604051600060405180830381858888f193505050501515610cee57600080fd5b50565b60086020528060005260406000206000915090505481565b6000806001600084815260200190815260200160002060009054906101000a900473ffffffffffffffffffffffffffffffffffffffff169050600073ffffffffffffffffffffffffffffffffffffffff168173ffffffffffffffffffffffffffffffffffffffff1614151515610d7e57600080fd5b80915050919050565b610d8f611d4d565b610f0e610e5d73__StringLib_____________________________6394e8767d600a86815481101515610dbe57fe5b90600052602060002090602091828204019190069054906101000a900460ff166000604051602001526040518263ffffffff167c0100000000000000000000000000000000000000000000000000000000028152600401808260ff16815260200191505060206040518083038186803b1515610e3957600080fd5b6102c65a03f41515610e4a57600080fd5b505050604051805190506000191661138e565b610f0060098054600181600116156101000203166002900480601f016020809104026020016040519081016040528092919081815260200182805460018160011615610100020316600290048015610ef65780601f10610ecb57610100808354040283529160200191610ef6565b820191906000526020600020905b815481529060010190602001808311610ed957829003601f168201915b50505050506113c1565b6113ef90919063ffffffff16565b9050919050565b6000600360008373ffffffffffffffffffffffffffffffffffffffff1673ffffffffffffffffffffffffffffffffffffffff168152602001908152602001600020805490509050919050565b600560009054906101000a900473ffffffffffffffffffffffffffffffffffffffff1681565b803373ffffffffffffffffffffffffffffffffffffffff16610fa882610d09565b73ffffffffffffffffffffffffffffffffffffffff16141515610fca57600080fd5b610fd533848461146d565b505050565b610fe433826115b6565b1515610fef57600080fd5b611002610ffb82610d09565b338361146d565b50565b803373ffffffffffffffffffffffffffffffffffffffff1661102682610d09565b73ffffffffffffffffffffffffffffffffffffffff1614151561104857600080fd5b600654341015151561105957600080fd5b60065460076000828254019250508190555061107982600654340361135d565b5050565b60075481565b600560009054906101000a900473ffffffffffffffffffffffffffffffffffffffff1673ffffffffffffffffffffffffffffffffffffffff163373ffffffffffffffffffffffffffffffffffffffff161415156110df57600080fd5b8060068190555050565b600560009054906101000a900473ffffffffffffffffffffffffffffffffffffffff1673ffffffffffffffffffffffffffffffffffffffff163373ffffffffffffffffffffffffffffffffffffffff1614151561114557600080fd5b600073ffffffffffffffffffffffffffffffffffffffff168173ffffffffffffffffffffffffffffffffffffffff161415151561118157600080fd5b8073ffffffffffffffffffffffffffffffffffffffff16600560009054906101000a900473ffffffffffffffffffffffffffffffffffffffff1673ffffffffffffffffffffffffffffffffffffffff167f8be0079c531659141344cd1fd0a4f28419497f9722a3daafe3b4186f6b6457e060405160405180910390a380600560006101000a81548173ffffffffffffffffffffffffffffffffffffffff021916908373ffffffffffffffffffffffffffffffffffffffff16021790555050565b600560009054906101000a900473ffffffffffffffffffffffffffffffffffffffff1673ffffffffffffffffffffffffffffffffffffffff163373ffffffffffffffffffffffffffffffffffffffff1614151561129d57600080fd5b80600990805190602001906112b3929190611d61565b5050565b60006101006001430340836040518083600019166000191681526020018281526020019250505060405180910390206001900460ff168115156112f657fe5b069050919050565b6000806001600a80548060010182816113179190611de1565b916000526020600020906020918282040191900687909190916101000a81548160ff021916908360ff16021790555003905061135383826115f7565b8091505092915050565b8060086000848152602001908152602001600020540160086000848152602001908152602001600020819055505050565b611396611e1b565b60405160208101604052828152806020830152506113b382611691565b816000018181525050919050565b6113c9611e1b565b600060208301905060408051908101604052808451815260200182815250915050919050565b6113f7611d4d565b6113ff611d4d565b600083600001518560000151016040518059106114195750595b9080825280601f01601f1916602001820160405250915060208201905061144981866020015187600001516117db565b61146285600001518201856020015186600001516117db565b819250505092915050565b600073ffffffffffffffffffffffffffffffffffffffff168273ffffffffffffffffffffffffffffffffffffffff16141515156114a957600080fd5b6114b281610d09565b73ffffffffffffffffffffffffffffffffffffffff168273ffffffffffffffffffffffffffffffffffffffff16141515156114ec57600080fd5b8273ffffffffffffffffffffffffffffffffffffffff1661150c82610d09565b73ffffffffffffffffffffffffffffffffffffffff1614151561152e57600080fd5b6115388382611826565b611542838261190f565b61154c8282611b97565b8173ffffffffffffffffffffffffffffffffffffffff168373ffffffffffffffffffffffffffffffffffffffff167fddf252ad1be2c89b69c2b068fc378daa952ba7f163c4a11628f55a4df523b3ef836040518082815260200191505060405180910390a3505050565b60008273ffffffffffffffffffffffffffffffffffffffff166115d8836109b6565b73ffffffffffffffffffffffffffffffffffffffff1614905092915050565b600073ffffffffffffffffffffffffffffffffffffffff168273ffffffffffffffffffffffffffffffffffffffff161415151561163357600080fd5b61163d8282611b97565b8173ffffffffffffffffffffffffffffffffffffffff1660007fddf252ad1be2c89b69c2b068fc378daa952ba7f163c4a11628f55a4df523b3ef836040518082815260200191505060405180910390a35050565b6000806000600102836000191614156116ad57600091506117d5565b60006001026fffffffffffffffffffffffffffffffff60010284166000191614156116ff5760108101905070010000000000000000000000000000000083600190048115156116f857fe5b0460010292505b600060010267ffffffffffffffff60010284166000191614156117415760088101905068010000000000000000836001900481151561173a57fe5b0460010292505b600060010263ffffffff600102841660001916141561177b57600481019050640100000000836001900481151561177457fe5b0460010292505b600060010261ffff60010284166000191614156117b1576002810190506201000083600190048115156117aa57fe5b0460010292505b600060010260ff60010284166000191614156117ce576001810190505b8060200391505b50919050565b60005b60208210151561180357825184526020840193506020830192506020820391506117de565b6001826020036101000a0390508019835116818551168181178652505050505050565b8173ffffffffffffffffffffffffffffffffffffffff1661184682610d09565b73ffffffffffffffffffffffffffffffffffffffff1614151561186857600080fd5b60006002600083815260200190815260200160002060006101000a81548173ffffffffffffffffffffffffffffffffffffffff021916908373ffffffffffffffffffffffffffffffffffffffff16021790555060008273ffffffffffffffffffffffffffffffffffffffff167f8c5be1e5ebec7d5bd14f71427d1e84f3dd0314c0f7b2291e5b200ac8c7c3b925836040518082815260200191505060405180910390a35050565b60008060008473ffffffffffffffffffffffffffffffffffffffff1661193485610d09565b73ffffffffffffffffffffffffffffffffffffffff1614151561195657600080fd5b60046000858152602001908152602001600020549250611988600161197a87610f15565b611d0290919063ffffffff16565b9150600360008673ffffffffffffffffffffffffffffffffffffffff1673ffffffffffffffffffffffffffffffffffffffff168152602001908152602001600020828154811015156119d657fe5b906000526020600020900154905060006001600086815260200190815260200160002060006101000a81548173ffffffffffffffffffffffffffffffffffffffff021916908373ffffffffffffffffffffffffffffffffffffffff16021790555080600360008773ffffffffffffffffffffffffffffffffffffffff1673ffffffffffffffffffffffffffffffffffffffff16815260200190815260200160002084815481101515611a8457fe5b9060005260206000209001819055506000600360008773ffffffffffffffffffffffffffffffffffffffff1673ffffffffffffffffffffffffffffffffffffffff16815260200190815260200160002083815481101515611ae157fe5b906000526020600020900181905550600360008673ffffffffffffffffffffffffffffffffffffffff1673ffffffffffffffffffffffffffffffffffffffff168152602001908152602001600020805480919060019003611b429190611e35565b5060006004600086815260200190815260200160002081905550826004600083815260200190815260200160002081905550611b8a6001600054611d0290919063ffffffff16565b6000819055505050505050565b60008073ffffffffffffffffffffffffffffffffffffffff166001600084815260200190815260200160002060009054906101000a900473ffffffffffffffffffffffffffffffffffffffff1673ffffffffffffffffffffffffffffffffffffffff16141515611c0657600080fd5b826001600084815260200190815260200160002060006101000a81548173ffffffffffffffffffffffffffffffffffffffff021916908373ffffffffffffffffffffffffffffffffffffffff160217905550611c6183610f15565b9050600360008473ffffffffffffffffffffffffffffffffffffffff1673ffffffffffffffffffffffffffffffffffffffff1681526020019081526020016000208054806001018281611cb49190611e61565b916000526020600020900160008490919091505550806004600084815260200190815260200160002081905550611cf76001600054611d1b90919063ffffffff16565b600081905550505050565b6000828211151515611d1057fe5b818303905092915050565b6000808284019050838110151515611d2f57fe5b8091505092915050565b602060405190810160405280600081525090565b602060405190810160405280600081525090565b828054600181600116156101000203166002900490600052602060002090601f016020900481019282601f10611da257805160ff1916838001178555611dd0565b82800160010185558215611dd0579182015b82811115611dcf578251825591602001919060010190611db4565b5b509050611ddd9190611e8d565b5090565b815481835581811511611e1657601f016020900481601f01602090048360005260206000209182019101611e159190611e8d565b5b505050565b604080519081016040528060008152602001600081525090565b815481835581811511611e5c57818360005260206000209182019101611e5b9190611e8d565b5b505050565b815481835581811511611e8857818360005260206000209182019101611e879190611e8d565b5b505050565b611eaf91905b80821115611eab576000816000905550600101611e93565b5090565b905600a165627a7a7230582042cf400065c5d2692b3395446d9e1303081076dd3c235bc32dcaf3fb4c96e0c40029",
  "source": "pragma solidity ^0.4.18;\n\nimport \"zeppelin-solidity/contracts/ownership/Ownable.sol\";\nimport \"./vendors/ethereum-string-utils/contracts/StringLib.sol\";\n// Uses OpenZeppelin ERC721 implementation\nimport \"zeppelin-solidity/contracts/token/ERC721/ERC721Token.sol\";\n\ncontract ERC721Meta {\n  function tokenMetadata(uint256 _tokenId) public view returns (string infoUrl);\n}\n\n// Modified from https://github.com/Arachnid/solidity-stringutils\nlibrary strings {\n  struct slice {\n      uint _len;\n      uint _ptr;\n  }\n  function memcpy(uint dest, uint src, uint len) private pure {\n      // Copy word-length chunks while possible\n      for(; len >= 32; len -= 32) {\n          assembly {\n              mstore(dest, mload(src))\n          }\n          dest += 32;\n          src += 32;\n      }\n\n      // Copy remaining bytes\n      uint mask = 256 ** (32 - len) - 1;\n      assembly {\n          let srcpart := and(mload(src), not(mask))\n          let destpart := and(mload(dest), mask)\n          mstore(dest, or(destpart, srcpart))\n      }\n  }\n  /*\n   * @dev Returns the length of a null-terminated bytes32 string.\n   * @param self The value to find the length of.\n   * @return The length of the string, from 0 to 32.\n   */\n  function len(bytes32 self) internal pure returns (uint) {\n      uint ret;\n      if (self == 0)\n          return 0;\n      if (self & 0xffffffffffffffffffffffffffffffff == 0) {\n          ret += 16;\n          self = bytes32(uint(self) / 0x100000000000000000000000000000000);\n      }\n      if (self & 0xffffffffffffffff == 0) {\n          ret += 8;\n          self = bytes32(uint(self) / 0x10000000000000000);\n      }\n      if (self & 0xffffffff == 0) {\n          ret += 4;\n          self = bytes32(uint(self) / 0x100000000);\n      }\n      if (self & 0xffff == 0) {\n          ret += 2;\n          self = bytes32(uint(self) / 0x10000);\n      }\n      if (self & 0xff == 0) {\n          ret += 1;\n      }\n      return 32 - ret;\n  }\n  /*\n   * @dev Returns a slice containing the entire string.\n   * @param self The string to make a slice from.\n   * @return A newly allocated slice containing the entire string.\n   */\n  function toSlice(string self) internal pure returns (slice) {\n      uint ptr;\n      assembly {\n          ptr := add(self, 0x20)\n      }\n      return slice(bytes(self).length, ptr);\n  }\n  /*\n   * @dev Returns a slice containing the entire bytes32, interpreted as a\n   *      null-termintaed utf-8 string.\n   * @param self The bytes32 value to convert to a slice.\n   * @return A new slice containing the value of the input argument up to the\n   *         first null.\n   */\n  function toSliceB32(bytes32 self) internal pure returns (slice ret) {\n      // Allocate space for `self` in memory, copy it there, and point ret at it\n      assembly {\n          let ptr := mload(0x40)\n          mstore(0x40, add(ptr, 0x20))\n          mstore(ptr, self)\n          mstore(add(ret, 0x20), ptr)\n      }\n      ret._len = len(self);\n  }\n  /*\n   * @dev Returns a newly allocated string containing the concatenation of\n   *      `self` and `other`.\n   * @param self The first slice to concatenate.\n   * @param other The second slice to concatenate.\n   * @return The concatenation of the two strings.\n   */\n  function concat(slice self, slice other) internal pure returns (string) {\n      var ret = new string(self._len + other._len);\n      uint retptr;\n      assembly { retptr := add(ret, 32) }\n      memcpy(retptr, self._ptr, self._len);\n      memcpy(retptr + self._len, other._ptr, other._len);\n      return ret;\n  }\n}\n\ncontract RedEthvelope is ERC721Token, ERC721Meta, Ownable {\n  using strings for *;\n\n  // Cost for creating an ethvelope (taken by the contract)\n  uint256 public costInWei = 0;\n  // Keeps track of ETH balance owner is allowed to withdraw\n  uint256 public ownerBalance = 0;\n  // Keeps track of ETH balance in each ethvelope\n  mapping(uint256 => uint256) public tokenIdToWei;\n  // Metadata Host URL for retrieving information about ethvelope\n  string public metadataHostUrl;\n  // We don't really care about anything except the 8 bits representing an Ethvelope\n  uint8[] public redEthvelopes;\n\n  function changeCostInWei(uint256 _wei) public onlyOwner {\n    costInWei = _wei;\n  }\n\n  function changeMetadataUrl(string _url) public onlyOwner {\n    metadataHostUrl = _url;\n  }\n\n  function RedEthvelope(string _url, uint256 _costInWei) public {\n    changeMetadataUrl(_url);\n    changeCostInWei(_costInWei);\n  }\n\n  // Withdraws wei as owner\n  function withdrawAsOwner(uint256 _wei) public onlyOwner {\n    require(_wei <= ownerBalance);\n    ownerBalance -= _wei;\n    msg.sender.transfer(_wei);\n  }\n\n  // Generates a random number from 0 to 256 based on the last block hash\n  // https://gist.github.com/alexvandesande/259b4ffb581493ec0a1c\n  function randomGen(uint256 seed) private view returns (uint8 randomNumber) {\n    return uint8(uint8(keccak256(block.blockhash(block.number-1), seed ))%256);\n  } \n\n  function _createEthvelope(uint8 _dna, address _owner) private returns (uint256 ethvelopeId) {\n    uint256 id = redEthvelopes.push(_dna) - 1;\n    _mint(_owner, id);\n    return id;\n  }\n\n  function _deposit(uint256 _tokenId, uint256 _amountInWei) private {\n    tokenIdToWei[_tokenId] = tokenIdToWei[_tokenId] + _amountInWei;\n  }\n\n  function withdraw(uint256 _tokenId, uint256 _amountInWei) public onlyOwnerOf(_tokenId) {\n    require(_amountInWei < tokenIdToWei[_tokenId]);\n    tokenIdToWei[_tokenId] -= _amountInWei;\n    msg.sender.transfer(_amountInWei);\n  }\n\n  function tokenMetadata(uint256 _tokenId) public view returns (string infoUrl) {\n    return metadataHostUrl.toSlice().concat(StringLib.uintToBytes(redEthvelopes[_tokenId]).toSliceB32());\n  }\n\n  event EthvelopeCreatedAndSent(address _to);\n\n  function createAndSendEthvelope(address _to) public payable {\n    // Sender must pay at least costInWei to send Ethvelope\n    require(msg.value >= costInWei);\n    // Cannot send Ethvelope to yourself\n    require(msg.sender != _to);\n    ownerBalance += costInWei;\n    uint256 id = _createEthvelope(randomGen(msg.value), _to);\n    // Deducts costInWei before depositing remaining balance into Ethvelope\n    _deposit(id, msg.value - costInWei);\n    EthvelopeCreatedAndSent(_to);\n  }\n\n  // Ethvelopes are reusable. Therefore, owner of ethvelope can deposit more ETH if desired\n  function deposit(uint256 _tokenId) public payable onlyOwnerOf(_tokenId) {\n    // Sender must pay at least costInWei to deposit into Ethvelope\n    require(msg.value >= costInWei);\n    ownerBalance += costInWei;\n    _deposit(_tokenId, msg.value - costInWei);\n  }\n\n}\n",
  "sourcePath": "/Users/calvin/red-ethvelopes/contracts/RedEthvelope.sol",
  "compiler": {
    "name": "solc",
    "version": "0.4.18+commit.9cf6e910.Emscripten.clang"
  },
  "schemaVersion": "1.0.1",
  "updatedAt": "2018-02-06T05:49:31.836Z"
}