{
  "contractName": "StringLib",
  "abi": [
    {
      "constant": true,
      "inputs": [
        {
          "name": "v",
          "type": "bytes32"
        }
      ],
      "name": "bytesToUInt",
      "outputs": [
        {
          "name": "ret",
          "type": "uint256"
        }
      ],
      "payable": false,
      "stateMutability": "view",
      "type": "function"
    },
    {
      "constant": true,
      "inputs": [
        {
          "name": "v",
          "type": "uint256"
        }
      ],
      "name": "uintToBytes",
      "outputs": [
        {
          "name": "ret",
          "type": "bytes32"
        }
      ],
      "payable": false,
      "stateMutability": "view",
      "type": "function"
    }
  ],
  "bytecode": "0x6060604052341561000f57600080fd5b61021b8061001e6000396000f30060606040526004361061004c576000357c0100000000000000000000000000000000000000000000000000000000900463ffffffff16806381a33a6f1461005157806394e8767d14610081575b600080fd5b61006b6004808035600019169060200190919050506100b5565b6040518082815260200191505060405180910390f35b6100976004808035906020019091905050610146565b60405180826000191660001916815260200191505060405180910390f35b600080600080600102846000191614156100ce57600080fd5b600090505b602081101561013c5760ff81601f0360080260020a85600190048115156100f657fe5b0416915060008214156101085761013c565b60308210806101175750603982115b1561012157600080fd5b600a83029250603082038301925080806001019150506100d3565b8292505050919050565b600080821415610178577f300000000000000000000000000000000000000000000000000000000000000090506101e7565b5b60008211156101e657610100816001900481151561019357fe5b0460010290507f01000000000000000000000000000000000000000000000000000000000000006030600a848115156101c857fe5b06010260010281179050600a828115156101de57fe5b049150610179565b5b8090509190505600a165627a7a72305820d92c40f925bdd17f640f650181902586b1280cc89e54e008b1827c239c6285750029",
  "source": "// String Utils v0.1\n\n/// @title String Utils - String utility functions\n/// @author Piper Merriam - <pipermerriam@gmail.com>\nlibrary StringLib {\n    /// @dev Converts an unsigned integert to its string representation.\n    /// @param v The number to be converted.\n    function uintToBytes(uint v) constant returns (bytes32 ret) {\n        if (v == 0) {\n            ret = '0';\n        }\n        else {\n            while (v > 0) {\n                ret = bytes32(uint(ret) / (2 ** 8));\n                ret |= bytes32(((v % 10) + 48) * 2 ** (8 * 31));\n                v /= 10;\n            }\n        }\n        return ret;\n    }\n\n    /// @dev Converts a numeric string to it's unsigned integer representation.\n    /// @param v The string to be converted.\n    function bytesToUInt(bytes32 v) constant returns (uint ret) {\n        if (v == 0x0) {\n            throw;\n        }\n\n        uint digit;\n\n        for (uint i = 0; i < 32; i++) {\n            digit = uint((uint(v) / (2 ** (8 * (31 - i)))) & 0xff);\n            if (digit == 0) {\n                break;\n            }\n            else if (digit < 48 || digit > 57) {\n                throw;\n            }\n            ret *= 10;\n            ret += (digit - 48);\n        }\n        return ret;\n    }\n}\n\n\n/// @title String Utils - String utility functions\n/// @author Piper Merriam - <pipermerriam@gmail.com>\nlibrary StringUtils {\n    /// @dev Converts an unsigned integert to its string representation.\n    /// @param v The number to be converted.\n    function uintToBytes(uint v) constant returns (bytes32 ret) {\n            return StringLib.uintToBytes(v);\n    }\n\n    /// @dev Converts a numeric string to it's unsigned integer representation.\n    /// @param v The string to be converted.\n    function bytesToUInt(bytes32 v) constant returns (uint ret) {\n            return StringLib.bytesToUInt(v);\n    }\n}\n",
  "sourcePath": "/Users/calvin/red-ethvelopes/contracts/vendors/ethereum-string-utils/contracts/StringLib.sol",
  "compiler": {
    "name": "solc",
    "version": "0.4.18+commit.9cf6e910.Emscripten.clang"
  },
  "schemaVersion": "1.0.1",
  "updatedAt": "2018-02-06T05:49:31.831Z"
}